{
  "contractName": "ERC721",
  "abi": [
    {
      "inputs": [],
      "stateMutability": "nonpayable",
      "type": "constructor"
    },
    {
      "anonymous": false,
      "inputs": [
        {
          "indexed": true,
          "internalType": "address",
          "name": "_owner",
          "type": "address"
        },
        {
          "indexed": true,
          "internalType": "address",
          "name": "_approved",
          "type": "address"
        },
        {
          "indexed": true,
          "internalType": "uint256",
          "name": "_tokenId",
          "type": "uint256"
        }
      ],
      "name": "Approval",
      "type": "event"
    },
    {
      "anonymous": false,
      "inputs": [
        {
          "indexed": true,
          "internalType": "address",
          "name": "_from",
          "type": "address"
        },
        {
          "indexed": true,
          "internalType": "address",
          "name": "_to",
          "type": "address"
        },
        {
          "indexed": true,
          "internalType": "uint256",
          "name": "_tokenId",
          "type": "uint256"
        }
      ],
      "name": "Transfer",
      "type": "event"
    },
    {
      "inputs": [
        {
          "internalType": "bytes4",
          "name": "interfaceID",
          "type": "bytes4"
        }
      ],
      "name": "supportsInterface",
      "outputs": [
        {
          "internalType": "bool",
          "name": "",
          "type": "bool"
        }
      ],
      "stateMutability": "view",
      "type": "function"
    },
    {
      "inputs": [
        {
          "internalType": "address",
          "name": "_owner",
          "type": "address"
        }
      ],
      "name": "balanceOf",
      "outputs": [
        {
          "internalType": "uint256",
          "name": "",
          "type": "uint256"
        }
      ],
      "stateMutability": "view",
      "type": "function"
    },
    {
      "inputs": [
        {
          "internalType": "uint256",
          "name": "_tokenId",
          "type": "uint256"
        }
      ],
      "name": "ownerOf",
      "outputs": [
        {
          "internalType": "address",
          "name": "",
          "type": "address"
        }
      ],
      "stateMutability": "view",
      "type": "function"
    },
    {
      "inputs": [
        {
          "internalType": "address",
          "name": "_from",
          "type": "address"
        },
        {
          "internalType": "address",
          "name": "_to",
          "type": "address"
        },
        {
          "internalType": "uint256",
          "name": "_tokenId",
          "type": "uint256"
        }
      ],
      "name": "transferFrom",
      "outputs": [],
      "stateMutability": "nonpayable",
      "type": "function"
    },
    {
      "inputs": [
        {
          "internalType": "address",
          "name": "_to",
          "type": "address"
        },
        {
          "internalType": "uint256",
          "name": "tokenId",
          "type": "uint256"
        }
      ],
      "name": "approve",
      "outputs": [],
      "stateMutability": "nonpayable",
      "type": "function"
    }
  ],
  "bytecode": "0x608060405234801561001057600080fd5b506100407f01ffc9a7a5cef8baa21ed3c5c0d7e23accb804b619e9333b597f47a0d84076e26100b860201b60201c565b6100b37f22c82707ba960a14c7592ffb6b8cfaa073fed0048a84cc7fa41f6b5bd8e7f2e47f3a6eb71757dfc6e784c1459d26270140c2c147d95ca985c80026fc5301c3eca17f8a7e378434598edc36d108689a030cbc9d7d465de4f74c71bae1028eed6a881b18186100b860201b60201c565b61020a565b63ffffffff60e01b817bffffffffffffffffffffffffffffffffffffffffffffffffffffffff19161415610121576040517f08c379a0000000000000000000000000000000000000000000000000000000008152600401610118906101ea565b60405180910390fd5b6001600080837bffffffffffffffffffffffffffffffffffffffffffffffffffffffff19167bffffffffffffffffffffffffffffffffffffffffffffffffffffffff1916815260200190815260200160002060006101000a81548160ff02191690831515021790555050565b600082825260208201905092915050565b7f496e76616c696420696e74657266616365207265717565737400000000000000600082015250565b60006101d460198361018d565b91506101df8261019e565b602082019050919050565b60006020820190508181036000830152610203816101c7565b9050919050565b610fd8806200021a6000396000f3fe608060405234801561001057600080fd5b50600436106100575760003560e01c806301ffc9a71461005c578063095ea7b31461008c57806323b872dd146100a85780636352211e146100c457806370a08231146100f4575b600080fd5b610076600480360381019061007191906108ee565b610124565b6040516100839190610936565b60405180910390f35b6100a660048036038101906100a191906109e5565b61018b565b005b6100c260048036038101906100bd9190610a25565b610327565b005b6100de60048036038101906100d99190610a78565b61034a565b6040516100eb9190610ab4565b60405180910390f35b61010e60048036038101906101099190610acf565b6103fc565b60405161011b9190610b0b565b60405180910390f35b6000806000837bffffffffffffffffffffffffffffffffffffffffffffffffffffffff19167bffffffffffffffffffffffffffffffffffffffffffffffffffffffff1916815260200190815260200160002060009054906101000a900460ff169050919050565b60006101968261034a565b90508073ffffffffffffffffffffffffffffffffffffffff168373ffffffffffffffffffffffffffffffffffffffff161415610207576040517f08c379a00000000000000000000000000000000000000000000000000000000081526004016101fe90610ba9565b60405180910390fd5b8073ffffffffffffffffffffffffffffffffffffffff163373ffffffffffffffffffffffffffffffffffffffff1614610275576040517f08c379a000000000000000000000000000000000000000000000000000000000815260040161026c90610c3b565b60405180910390fd5b826003600084815260200190815260200160002060006101000a81548173ffffffffffffffffffffffffffffffffffffffff021916908373ffffffffffffffffffffffffffffffffffffffff160217905550818373ffffffffffffffffffffffffffffffffffffffff168273ffffffffffffffffffffffffffffffffffffffff167f8c5be1e5ebec7d5bd14f71427d1e84f3dd0314c0f7b2291e5b200ac8c7c3b92560405160405180910390a4505050565b61033133826104bb565b61033a57600080fd5b61034583838361054a565b505050565b6000806001600084815260200190815260200160002060009054906101000a900473ffffffffffffffffffffffffffffffffffffffff169050600073ffffffffffffffffffffffffffffffffffffffff168173ffffffffffffffffffffffffffffffffffffffff1614156103f3576040517f08c379a00000000000000000000000000000000000000000000000000000000081526004016103ea90610ccd565b60405180910390fd5b80915050919050565b60008073ffffffffffffffffffffffffffffffffffffffff168273ffffffffffffffffffffffffffffffffffffffff16141561046d576040517f08c379a000000000000000000000000000000000000000000000000000000000815260040161046490610ccd565b60405180910390fd5b6104b4600260008473ffffffffffffffffffffffffffffffffffffffff1673ffffffffffffffffffffffffffffffffffffffff168152602001908152602001600020610770565b9050919050565b60006104c68261077e565b610505576040517f08c379a00000000000000000000000000000000000000000000000000000000081526004016104fc90610d39565b60405180910390fd5b60006105108361034a565b90508073ffffffffffffffffffffffffffffffffffffffff168473ffffffffffffffffffffffffffffffffffffffff161491505092915050565b600073ffffffffffffffffffffffffffffffffffffffff168273ffffffffffffffffffffffffffffffffffffffff1614156105ba576040517f08c379a00000000000000000000000000000000000000000000000000000000081526004016105b190610dcb565b60405180910390fd5b8273ffffffffffffffffffffffffffffffffffffffff166105da8261034a565b73ffffffffffffffffffffffffffffffffffffffff1614610630576040517f08c379a000000000000000000000000000000000000000000000000000000000815260040161062790610e5d565b60405180910390fd5b610677600260008573ffffffffffffffffffffffffffffffffffffffff1673ffffffffffffffffffffffffffffffffffffffff1681526020019081526020016000206107f0565b6106be600260008473ffffffffffffffffffffffffffffffffffffffff1673ffffffffffffffffffffffffffffffffffffffff168152602001908152602001600020610813565b816001600083815260200190815260200160002060006101000a81548173ffffffffffffffffffffffffffffffffffffffff021916908373ffffffffffffffffffffffffffffffffffffffff160217905550808273ffffffffffffffffffffffffffffffffffffffff168473ffffffffffffffffffffffffffffffffffffffff167fddf252ad1be2c89b69c2b068fc378daa952ba7f163c4a11628f55a4df523b3ef60405160405180910390a4505050565b600081600001549050919050565b6000806001600084815260200190815260200160002060009054906101000a900473ffffffffffffffffffffffffffffffffffffffff169050600073ffffffffffffffffffffffffffffffffffffffff168173ffffffffffffffffffffffffffffffffffffffff161415915050919050565b6108086001826000015461083290919063ffffffff16565b816000018190555050565b60018160000160008282546108289190610eac565b9250508190555050565b600082821115610877576040517f08c379a000000000000000000000000000000000000000000000000000000000815260040161086e90610f4e565b60405180910390fd5b600082846108859190610f6e565b90508091505092915050565b600080fd5b60007fffffffff0000000000000000000000000000000000000000000000000000000082169050919050565b6108cb81610896565b81146108d657600080fd5b50565b6000813590506108e8816108c2565b92915050565b60006020828403121561090457610903610891565b5b6000610912848285016108d9565b91505092915050565b60008115159050919050565b6109308161091b565b82525050565b600060208201905061094b6000830184610927565b92915050565b600073ffffffffffffffffffffffffffffffffffffffff82169050919050565b600061097c82610951565b9050919050565b61098c81610971565b811461099757600080fd5b50565b6000813590506109a981610983565b92915050565b6000819050919050565b6109c2816109af565b81146109cd57600080fd5b50565b6000813590506109df816109b9565b92915050565b600080604083850312156109fc576109fb610891565b5b6000610a0a8582860161099a565b9250506020610a1b858286016109d0565b9150509250929050565b600080600060608486031215610a3e57610a3d610891565b5b6000610a4c8682870161099a565b9350506020610a5d8682870161099a565b9250506040610a6e868287016109d0565b9150509250925092565b600060208284031215610a8e57610a8d610891565b5b6000610a9c848285016109d0565b91505092915050565b610aae81610971565b82525050565b6000602082019050610ac96000830184610aa5565b92915050565b600060208284031215610ae557610ae4610891565b5b6000610af38482850161099a565b91505092915050565b610b05816109af565b82525050565b6000602082019050610b206000830184610afc565b92915050565b600082825260208201905092915050565b7f4572726f72202d20617070726f76616c20746f207468652063757272656e742060008201527f6f776e6572000000000000000000000000000000000000000000000000000000602082015250565b6000610b93602583610b26565b9150610b9e82610b37565b604082019050919050565b60006020820190508181036000830152610bc281610b86565b9050919050565b7f43757272656e742063616c6c6572206973206e6f7420746865206f776e65722060008201527f6f662074686520746f6b656e0000000000000000000000000000000000000000602082015250565b6000610c25602c83610b26565b9150610c3082610bc9565b604082019050919050565b60006020820190508181036000830152610c5481610c18565b9050919050565b7f6f776e657220717565727920666f72206e6f6e2d6578697374656e7420746f6b60008201527f656e000000000000000000000000000000000000000000000000000000000000602082015250565b6000610cb7602283610b26565b9150610cc282610c5b565b604082019050919050565b60006020820190508181036000830152610ce681610caa565b9050919050565b7f746f6b656e20646f65736e742065786973740000000000000000000000000000600082015250565b6000610d23601283610b26565b9150610d2e82610ced565b602082019050919050565b60006020820190508181036000830152610d5281610d16565b9050919050565b7f4572726f72202d20524543373231205472616e7366657220746f20746865207a60008201527f65726f2061646472657373000000000000000000000000000000000000000000602082015250565b6000610db5602b83610b26565b9150610dc082610d59565b604082019050919050565b60006020820190508181036000830152610de481610da8565b9050919050565b7f547279696e6720746f207472616e73666572206120746f6b656e20746865206160008201527f64647265737320646f6573000000000000000000000000000000000000000000602082015250565b6000610e47602b83610b26565b9150610e5282610deb565b604082019050919050565b60006020820190508181036000830152610e7681610e3a565b9050919050565b7f4e487b7100000000000000000000000000000000000000000000000000000000600052601160045260246000fd5b6000610eb7826109af565b9150610ec2836109af565b9250827fffffffffffffffffffffffffffffffffffffffffffffffffffffffffffffffff03821115610ef757610ef6610e7d565b5b828201905092915050565b7f536166654d6174683a207375627472616374696f6e206f766572666c6f770000600082015250565b6000610f38601e83610b26565b9150610f4382610f02565b602082019050919050565b60006020820190508181036000830152610f6781610f2b565b9050919050565b6000610f79826109af565b9150610f84836109af565b925082821015610f9757610f96610e7d565b5b82820390509291505056fea26469706673582212209e4a4a0a7fd7ea2f98eff75b732cfb8f36fcb0d082bcaf755e94343f56a3f5bd64736f6c634300080b0033",
  "immutableReferences": {},
  "source": "// SPDX-License-Identifier: MIT\r\npragma solidity ^0.8.0;\r\n\r\nimport './ERC165.sol';\r\nimport './interfaces/IERC721.sol';\r\nimport './Libraries/Counters.sol';\r\n\r\ncontract ERC721 is ERC165, IERC721 {\r\n    using SafeMath for uint256; \r\n    using Counters for Counters.Counter;\r\n\r\n    \r\n    // mapping from token id to the onwer\r\n    mapping(uint256 => address) private _tokenOwner;\r\n    \r\n    // mapping from owner to number of owned tokens\r\n    mapping(address => Counters.Counter) private _OwnedTokensCount;\r\n    \r\n    // Mapping from token id to approved addresses.\r\n    mapping(uint256 => address) private _tokenApprovals;\r\n\r\n    constructor() {\r\n        _registerInterface(bytes4(keccak256('balanceOf(bytes4)') ^ keccak256('ownerOf(bytes4)') ^ keccak256('transferFrom(bytes4)')));\r\n    }\r\n    \r\n    function balanceOf(address _owner) public override view returns(uint256) {\r\n            require(_owner != address(0), 'owner query for non-existent token');\r\n            return _OwnedTokensCount[_owner].current();\r\n    }    \r\n    function ownerOf(uint256 _tokenId) public view override returns (address) {\r\n        address owner = _tokenOwner[_tokenId];\r\n        require(owner != address(0), 'owner query for non-existent token');\r\n        return owner;\r\n    }\r\n\r\n    function _exists(uint256 tokenId) internal view returns(bool) {\r\n        // setting the address of nft owner to check the mapping of the addreess from tokenOwner at the tokenId\r\n        address owner = _tokenOwner[tokenId];\r\n        // return truthiness tha address is not zero\r\n        return owner != address(0);\r\n    }\r\n\r\n\r\n    function _mint(address to, uint tokenId) internal virtual {\r\n        // requires that the address i9snt zero.\r\n        require(to != address(0), \"ERC721 minting to the zero address.\");\r\n        // requires that the token does not already exist.\r\n        require(!_exists(tokenId), \"token already minted!\");\r\n        // we are adding a new addresss with a token id for minting\r\n        _tokenOwner[tokenId] = to; \r\n        // keeping track of each address that is minting and adding one to the count\r\n        _OwnedTokensCount[to].increment(); \r\n\r\n        emit Transfer(address(0), to, tokenId);\r\n    }\r\n\r\n    function _transferFrom(address _from, address _to, uint256 _tokenId) internal {\r\n        require(_to != address(0), \"Error - REC721 Transfer to the zero address\");\r\n        require(ownerOf(_tokenId) == _from, \"Trying to transfer a token the address does\");\r\n\r\n        _OwnedTokensCount[_from].decrement();\r\n        _OwnedTokensCount[_to].increment();\r\n\r\n        _tokenOwner[_tokenId] = _to;\r\n\r\n        emit Transfer(_from, _to, _tokenId);\r\n    }\r\n\r\n    function transferFrom(address _from, address _to,uint256 _tokenId) override  public {\r\n        require(isApproveOrOwner(msg.sender, _tokenId));\r\n        _transferFrom(_from, _to, _tokenId);\r\n    }\r\n\r\n    // require that the person approving is the owner.\r\n    // we are approving an address to a token (tokenId).\r\n    // require that we cant approve sending tokens of the owner to the owner (current caller).\r\n    // update the map of the approval addresses.\r\n    function approve(address _to, uint256 tokenId) public { \r\n        address owner = ownerOf(tokenId);\r\n        require(_to != owner, \"Error - approval to the current owner\");\r\n        require(msg.sender == owner, 'Current caller is not the owner of the token');\r\n        _tokenApprovals[tokenId] = _to;\r\n        emit Approval(owner, _to, tokenId);\r\n    }\r\n\r\n    function isApproveOrOwner(address spender, uint256 tokenId) internal view returns(bool) {\r\n        require(_exists(tokenId), 'token doesnt exist');\r\n        address owner = ownerOf(tokenId);\r\n        return(spender == owner);\r\n    }\r\n }",
  "sourcePath": "D:\\Users\\abdul\\NFT-marketplace\\nft-marketplace-starter-kit\\src\\contracts\\ERC721.sol",
  "compiler": {
    "name": "solc",
    "version": "0.8.11+commit.d7f03943.Emscripten.clang"
  },
  "schemaVersion": "3.4.3",
  "updatedAt": "2021-12-21T14:02:05.617Z",
  "devdoc": {
    "kind": "dev",
    "methods": {},
    "version": 1
  },
  "userdoc": {
    "kind": "user",
    "methods": {},
    "version": 1
  }
}